{
  "contractName": "Marketplace",
  "abi": [
    {
      "inputs": [],
      "stateMutability": "nonpayable",
      "type": "constructor"
    },
    {
      "anonymous": false,
      "inputs": [
        {
          "indexed": true,
          "internalType": "address",
          "name": "owner",
          "type": "address"
        },
        {
          "indexed": true,
          "internalType": "address",
          "name": "approved",
          "type": "address"
        },
        {
          "indexed": true,
          "internalType": "uint256",
          "name": "tokenId",
          "type": "uint256"
        }
      ],
      "name": "Approval",
      "type": "event"
    },
    {
      "anonymous": false,
      "inputs": [
        {
          "indexed": true,
          "internalType": "address",
          "name": "owner",
          "type": "address"
        },
        {
          "indexed": true,
          "internalType": "address",
          "name": "operator",
          "type": "address"
        },
        {
          "indexed": false,
          "internalType": "bool",
          "name": "approved",
          "type": "bool"
        }
      ],
      "name": "ApprovalForAll",
      "type": "event"
    },
    {
      "anonymous": false,
      "inputs": [
        {
          "indexed": true,
          "internalType": "address",
          "name": "from",
          "type": "address"
        },
        {
          "indexed": true,
          "internalType": "address",
          "name": "to",
          "type": "address"
        },
        {
          "indexed": true,
          "internalType": "uint256",
          "name": "tokenId",
          "type": "uint256"
        }
      ],
      "name": "Transfer",
      "type": "event"
    },
    {
      "inputs": [],
      "name": "NFTCounter",
      "outputs": [
        {
          "internalType": "uint256",
          "name": "",
          "type": "uint256"
        }
      ],
      "stateMutability": "view",
      "type": "function",
      "constant": true
    },
    {
      "inputs": [],
      "name": "UserCounter",
      "outputs": [
        {
          "internalType": "uint256",
          "name": "",
          "type": "uint256"
        }
      ],
      "stateMutability": "view",
      "type": "function",
      "constant": true
    },
    {
      "inputs": [
        {
          "internalType": "uint256",
          "name": "",
          "type": "uint256"
        }
      ],
      "name": "allAddress",
      "outputs": [
        {
          "internalType": "address",
          "name": "",
          "type": "address"
        }
      ],
      "stateMutability": "view",
      "type": "function",
      "constant": true
    },
    {
      "inputs": [
        {
          "internalType": "uint256",
          "name": "",
          "type": "uint256"
        }
      ],
      "name": "allNFTs",
      "outputs": [
        {
          "internalType": "uint256",
          "name": "tokenId",
          "type": "uint256"
        },
        {
          "internalType": "string",
          "name": "tokenName",
          "type": "string"
        },
        {
          "internalType": "string",
          "name": "tokenImage",
          "type": "string"
        },
        {
          "internalType": "string",
          "name": "tokenURI",
          "type": "string"
        },
        {
          "internalType": "address payable",
          "name": "mintedBy",
          "type": "address"
        },
        {
          "internalType": "address payable",
          "name": "currentOwner",
          "type": "address"
        },
        {
          "internalType": "address payable",
          "name": "previousOwner",
          "type": "address"
        },
        {
          "internalType": "uint256",
          "name": "price",
          "type": "uint256"
        },
        {
          "internalType": "uint256",
          "name": "numberOfTransfers",
          "type": "uint256"
        },
        {
          "internalType": "bool",
          "name": "forSale",
          "type": "bool"
        },
        {
          "internalType": "string",
          "name": "des",
          "type": "string"
        }
      ],
      "stateMutability": "view",
      "type": "function",
      "constant": true
    },
    {
      "inputs": [
        {
          "internalType": "address",
          "name": "",
          "type": "address"
        }
      ],
      "name": "allProfiles",
      "outputs": [
        {
          "internalType": "string",
          "name": "bannerHash",
          "type": "string"
        },
        {
          "internalType": "string",
          "name": "imageHash",
          "type": "string"
        },
        {
          "internalType": "string",
          "name": "name",
          "type": "string"
        },
        {
          "internalType": "string",
          "name": "description",
          "type": "string"
        },
        {
          "internalType": "address",
          "name": "user",
          "type": "address"
        },
        {
          "internalType": "string",
          "name": "email",
          "type": "string"
        },
        {
          "internalType": "string",
          "name": "timeOfRegistry",
          "type": "string"
        }
      ],
      "stateMutability": "view",
      "type": "function",
      "constant": true
    },
    {
      "inputs": [
        {
          "internalType": "address",
          "name": "to",
          "type": "address"
        },
        {
          "internalType": "uint256",
          "name": "tokenId",
          "type": "uint256"
        }
      ],
      "name": "approve",
      "outputs": [],
      "stateMutability": "nonpayable",
      "type": "function"
    },
    {
      "inputs": [
        {
          "internalType": "address",
          "name": "owner",
          "type": "address"
        }
      ],
      "name": "balanceOf",
      "outputs": [
        {
          "internalType": "uint256",
          "name": "",
          "type": "uint256"
        }
      ],
      "stateMutability": "view",
      "type": "function",
      "constant": true
    },
    {
      "inputs": [],
      "name": "baseURI",
      "outputs": [
        {
          "internalType": "string",
          "name": "",
          "type": "string"
        }
      ],
      "stateMutability": "view",
      "type": "function",
      "constant": true
    },
    {
      "inputs": [],
      "name": "collectionName",
      "outputs": [
        {
          "internalType": "string",
          "name": "",
          "type": "string"
        }
      ],
      "stateMutability": "view",
      "type": "function",
      "constant": true
    },
    {
      "inputs": [],
      "name": "collectionNameSymbol",
      "outputs": [
        {
          "internalType": "string",
          "name": "",
          "type": "string"
        }
      ],
      "stateMutability": "view",
      "type": "function",
      "constant": true
    },
    {
      "inputs": [
        {
          "internalType": "uint256",
          "name": "tokenId",
          "type": "uint256"
        }
      ],
      "name": "getApproved",
      "outputs": [
        {
          "internalType": "address",
          "name": "",
          "type": "address"
        }
      ],
      "stateMutability": "view",
      "type": "function",
      "constant": true
    },
    {
      "inputs": [
        {
          "internalType": "address",
          "name": "owner",
          "type": "address"
        },
        {
          "internalType": "address",
          "name": "operator",
          "type": "address"
        }
      ],
      "name": "isApprovedForAll",
      "outputs": [
        {
          "internalType": "bool",
          "name": "",
          "type": "bool"
        }
      ],
      "stateMutability": "view",
      "type": "function",
      "constant": true
    },
    {
      "inputs": [
        {
          "internalType": "address",
          "name": "",
          "type": "address"
        }
      ],
      "name": "isProfileSet",
      "outputs": [
        {
          "internalType": "bool",
          "name": "",
          "type": "bool"
        }
      ],
      "stateMutability": "view",
      "type": "function",
      "constant": true
    },
    {
      "inputs": [],
      "name": "name",
      "outputs": [
        {
          "internalType": "string",
          "name": "",
          "type": "string"
        }
      ],
      "stateMutability": "view",
      "type": "function",
      "constant": true
    },
    {
      "inputs": [
        {
          "internalType": "uint256",
          "name": "tokenId",
          "type": "uint256"
        }
      ],
      "name": "ownerOf",
      "outputs": [
        {
          "internalType": "address",
          "name": "",
          "type": "address"
        }
      ],
      "stateMutability": "view",
      "type": "function",
      "constant": true
    },
    {
      "inputs": [
        {
          "internalType": "address",
          "name": "from",
          "type": "address"
        },
        {
          "internalType": "address",
          "name": "to",
          "type": "address"
        },
        {
          "internalType": "uint256",
          "name": "tokenId",
          "type": "uint256"
        }
      ],
      "name": "safeTransferFrom",
      "outputs": [],
      "stateMutability": "nonpayable",
      "type": "function"
    },
    {
      "inputs": [
        {
          "internalType": "address",
          "name": "from",
          "type": "address"
        },
        {
          "internalType": "address",
          "name": "to",
          "type": "address"
        },
        {
          "internalType": "uint256",
          "name": "tokenId",
          "type": "uint256"
        },
        {
          "internalType": "bytes",
          "name": "_data",
          "type": "bytes"
        }
      ],
      "name": "safeTransferFrom",
      "outputs": [],
      "stateMutability": "nonpayable",
      "type": "function"
    },
    {
      "inputs": [
        {
          "internalType": "address",
          "name": "operator",
          "type": "address"
        },
        {
          "internalType": "bool",
          "name": "approved",
          "type": "bool"
        }
      ],
      "name": "setApprovalForAll",
      "outputs": [],
      "stateMutability": "nonpayable",
      "type": "function"
    },
    {
      "inputs": [
        {
          "internalType": "bytes4",
          "name": "interfaceId",
          "type": "bytes4"
        }
      ],
      "name": "supportsInterface",
      "outputs": [
        {
          "internalType": "bool",
          "name": "",
          "type": "bool"
        }
      ],
      "stateMutability": "view",
      "type": "function",
      "constant": true
    },
    {
      "inputs": [],
      "name": "symbol",
      "outputs": [
        {
          "internalType": "string",
          "name": "",
          "type": "string"
        }
      ],
      "stateMutability": "view",
      "type": "function",
      "constant": true
    },
    {
      "inputs": [
        {
          "internalType": "uint256",
          "name": "index",
          "type": "uint256"
        }
      ],
      "name": "tokenByIndex",
      "outputs": [
        {
          "internalType": "uint256",
          "name": "",
          "type": "uint256"
        }
      ],
      "stateMutability": "view",
      "type": "function",
      "constant": true
    },
    {
      "inputs": [
        {
          "internalType": "string",
          "name": "",
          "type": "string"
        }
      ],
      "name": "tokenImageExists",
      "outputs": [
        {
          "internalType": "bool",
          "name": "",
          "type": "bool"
        }
      ],
      "stateMutability": "view",
      "type": "function",
      "constant": true
    },
    {
      "inputs": [
        {
          "internalType": "string",
          "name": "",
          "type": "string"
        }
      ],
      "name": "tokenNameExists",
      "outputs": [
        {
          "internalType": "bool",
          "name": "",
          "type": "bool"
        }
      ],
      "stateMutability": "view",
      "type": "function",
      "constant": true
    },
    {
      "inputs": [
        {
          "internalType": "address",
          "name": "owner",
          "type": "address"
        },
        {
          "internalType": "uint256",
          "name": "index",
          "type": "uint256"
        }
      ],
      "name": "tokenOfOwnerByIndex",
      "outputs": [
        {
          "internalType": "uint256",
          "name": "",
          "type": "uint256"
        }
      ],
      "stateMutability": "view",
      "type": "function",
      "constant": true
    },
    {
      "inputs": [
        {
          "internalType": "uint256",
          "name": "tokenId",
          "type": "uint256"
        }
      ],
      "name": "tokenURI",
      "outputs": [
        {
          "internalType": "string",
          "name": "",
          "type": "string"
        }
      ],
      "stateMutability": "view",
      "type": "function",
      "constant": true
    },
    {
      "inputs": [],
      "name": "totalSupply",
      "outputs": [
        {
          "internalType": "uint256",
          "name": "",
          "type": "uint256"
        }
      ],
      "stateMutability": "view",
      "type": "function",
      "constant": true
    },
    {
      "inputs": [
        {
          "internalType": "address",
          "name": "from",
          "type": "address"
        },
        {
          "internalType": "address",
          "name": "to",
          "type": "address"
        },
        {
          "internalType": "uint256",
          "name": "tokenId",
          "type": "uint256"
        }
      ],
      "name": "transferFrom",
      "outputs": [],
      "stateMutability": "nonpayable",
      "type": "function"
    },
    {
      "inputs": [
        {
          "internalType": "string",
          "name": "_name",
          "type": "string"
        },
        {
          "internalType": "string",
          "name": "_tokenURI",
          "type": "string"
        },
        {
          "internalType": "uint256",
          "name": "_price",
          "type": "uint256"
        },
        {
          "internalType": "string",
          "name": "_imageHash",
          "type": "string"
        },
        {
          "internalType": "string",
          "name": "_desc",
          "type": "string"
        }
      ],
      "name": "mintNFT",
      "outputs": [],
      "stateMutability": "nonpayable",
      "type": "function"
    },
    {
      "inputs": [],
      "name": "getNumberOfTokensMinted",
      "outputs": [
        {
          "internalType": "uint256",
          "name": "",
          "type": "uint256"
        }
      ],
      "stateMutability": "view",
      "type": "function",
      "constant": true
    },
    {
      "inputs": [
        {
          "internalType": "uint256",
          "name": "_tokenId",
          "type": "uint256"
        }
      ],
      "name": "buyToken",
      "outputs": [],
      "stateMutability": "payable",
      "type": "function",
      "payable": true
    },
    {
      "inputs": [
        {
          "internalType": "address payable",
          "name": "_accountAddress",
          "type": "address"
        },
        {
          "internalType": "uint256",
          "name": "_tokenId",
          "type": "uint256"
        }
      ],
      "name": "buyToken2",
      "outputs": [],
      "stateMutability": "payable",
      "type": "function",
      "payable": true
    },
    {
      "inputs": [
        {
          "internalType": "uint256",
          "name": "_tokenId",
          "type": "uint256"
        }
      ],
      "name": "toggleForSale",
      "outputs": [],
      "stateMutability": "nonpayable",
      "type": "function"
    },
    {
      "inputs": [
        {
          "internalType": "string",
          "name": "_bannerHash",
          "type": "string"
        },
        {
          "internalType": "string",
          "name": "_imageHash",
          "type": "string"
        },
        {
          "internalType": "string",
          "name": "_name",
          "type": "string"
        },
        {
          "internalType": "string",
          "name": "_bio",
          "type": "string"
        },
        {
          "internalType": "address",
          "name": "_user",
          "type": "address"
        },
        {
          "internalType": "string",
          "name": "_email",
          "type": "string"
        },
        {
          "internalType": "string",
          "name": "_timestamp",
          "type": "string"
        }
      ],
      "name": "addUserProfile",
      "outputs": [],
      "stateMutability": "nonpayable",
      "type": "function"
    }
  ],
  "bytecode": "0x60806040523480156200001157600080fd5b506040518060400160405280600e81526020017f4e465420436f6c6c656374696f6e0000000000000000000000000000000000008152506040518060400160405280600381526020017f4e46540000000000000000000000000000000000000000000000000000000000815250620000966301ffc9a760e01b6200016860201b60201c565b8160069080519060200190620000ae929190620003bd565b508060079080519060200190620000c7929190620003bd565b50620000e06380ac58cd60e01b6200016860201b60201c565b620000f8635b5e139f60e01b6200016860201b60201c565b6200011063780e9d6360e01b6200016860201b60201c565b5050620001226200027160201b60201c565b600a908051906020019062000139929190620003bd565b506200014a6200031760201b60201c565b600b908051906020019062000161929190620003bd565b5062000473565b63ffffffff60e01b817bffffffffffffffffffffffffffffffffffffffffffffffffffffffff1916141562000205576040517f08c379a000000000000000000000000000000000000000000000000000000000815260040180806020018281038252601c8152602001807f4552433136353a20696e76616c696420696e746572666163652069640000000081525060200191505060405180910390fd5b6001600080837bffffffffffffffffffffffffffffffffffffffffffffffffffffffff19167bffffffffffffffffffffffffffffffffffffffffffffffffffffffff1916815260200190815260200160002060006101000a81548160ff02191690831515021790555050565b606060068054600181600116156101000203166002900480601f0160208091040260200160405190810160405280929190818152602001828054600181600116156101000203166002900480156200030d5780601f10620002e1576101008083540402835291602001916200030d565b820191906000526020600020905b815481529060010190602001808311620002ef57829003601f168201915b5050505050905090565b606060078054600181600116156101000203166002900480601f016020809104026020016040519081016040528092919081815260200182805460018160011615610100020316600290048015620003b35780601f106200038757610100808354040283529160200191620003b3565b820191906000526020600020905b8154815290600101906020018083116200039557829003601f168201915b5050505050905090565b828054600181600116156101000203166002900490600052602060002090601f016020900481019282620003f5576000855562000441565b82601f106200041057805160ff191683800117855562000441565b8280016001018555821562000441579182015b828111156200044057825182559160200191906001019062000423565b5b50905062000450919062000454565b5090565b5b808211156200046f57600081600090555060010162000455565b5090565b615ddf80620004836000396000f3fe6080604052600436106101ee5760003560e01c80635508d8e11161010d578063a32018b9116100a0578063bf162d671161006f578063bf162d6714610745578063c87b56dd1461078c578063cc151f3a146107c9578063e5326ab1146107f4578063e985e9c51461081f576101ee565b8063a32018b914610679578063a46b1fac146106a2578063a8cef27a146106df578063b88d4fde1461071c576101ee565b806370a08231116100dc57806370a08231146105cc57806395d89b4114610609578063a220b30f14610634578063a22cb46514610650576101ee565b80635508d8e11461050e5780636352211e146105395780636c0360eb146105765780636f9507f9146105a1576101ee565b8063185756ae116101855780633fe1f140116101545780633fe1f1401461045457806342842e0e1461047d578063483f8602146104a65780634f6ccce7146104d1576101ee565b8063185756ae1461039557806323b872dd146103d25780632d296bf1146103fb5780632f745c5914610417576101ee565b8063095ea7b3116101c1578063095ea7b3146102db57806316f0c4161461030457806317f445f11461032d57806318160ddd1461036a576101ee565b806301ffc9a7146101f357806302959a201461023057806306fdde0314610273578063081812fc1461029e575b600080fd5b3480156101ff57600080fd5b5061021a60048036038101906102159190615402565b61085c565b6040516102279190615772565b60405180910390f35b34801561023c57600080fd5b506102576004803603810190610252919061521f565b6108c3565b60405161026a97969594939291906157af565b60405180910390f35b34801561027f57600080fd5b50610288610cb5565b604051610295919061578d565b60405180910390f35b3480156102aa57600080fd5b506102c560048036038101906102c09190615671565b610d57565b6040516102d29190615757565b60405180910390f35b3480156102e757600080fd5b5061030260048036038101906102fd91906153c6565b610df2565b005b34801561031057600080fd5b5061032b6004803603810190610326919061559a565b610f36565b005b34801561033957600080fd5b50610354600480360381019061034f919061542b565b611293565b6040516103619190615772565b60405180910390f35b34801561037657600080fd5b5061037f6112c9565b60405161038c9190615848565b60405180910390f35b3480156103a157600080fd5b506103bc60048036038101906103b7919061521f565b6112da565b6040516103c99190615772565b60405180910390f35b3480156103de57600080fd5b506103f960048036038101906103f491906152c0565b6112fa565b005b61041560048036038101906104109190615671565b611370565b005b34801561042357600080fd5b5061043e600480360381019061043991906153c6565b611adc565b60405161044b9190615848565b60405180910390f35b34801561046057600080fd5b5061047b6004803603810190610476919061546c565b611b37565b005b34801561048957600080fd5b506104a4600480360381019061049f91906152c0565b6122a1565b005b3480156104b257600080fd5b506104bb6122c1565b6040516104c89190615848565b60405180910390f35b3480156104dd57600080fd5b506104f860048036038101906104f39190615671565b6122c7565b6040516105059190615848565b60405180910390f35b34801561051a57600080fd5b506105236122ea565b6040516105309190615848565b60405180910390f35b34801561054557600080fd5b50610560600480360381019061055b9190615671565b6122f0565b60405161056d9190615757565b60405180910390f35b34801561058257600080fd5b5061058b612327565b604051610598919061578d565b60405180910390f35b3480156105ad57600080fd5b506105b66123c9565b6040516105c3919061578d565b60405180910390f35b3480156105d857600080fd5b506105f360048036038101906105ee919061521f565b612467565b6040516106009190615848565b60405180910390f35b34801561061557600080fd5b5061061e61253c565b60405161062b919061578d565b60405180910390f35b61064e60048036038101906106499190615248565b6125de565b005b34801561065c57600080fd5b506106776004803603810190610672919061538a565b612d4b565b005b34801561068557600080fd5b506106a0600480360381019061069b9190615671565b612f01565b005b3480156106ae57600080fd5b506106c960048036038101906106c4919061542b565b613553565b6040516106d69190615772565b60405180910390f35b3480156106eb57600080fd5b5061070660048036038101906107019190615671565b613589565b6040516107139190615757565b60405180910390f35b34801561072857600080fd5b50610743600480360381019061073e919061530f565b6135bc565b005b34801561075157600080fd5b5061076c60048036038101906107679190615671565b613634565b6040516107839b9a99989796959493929190615863565b60405180910390f35b34801561079857600080fd5b506107b360048036038101906107ae9190615671565b61395b565b6040516107c0919061578d565b60405180910390f35b3480156107d557600080fd5b506107de613c2c565b6040516107eb9190615848565b60405180910390f35b34801561080057600080fd5b50610809613c40565b604051610816919061578d565b60405180910390f35b34801561082b57600080fd5b5061084660048036038101906108419190615284565b613cde565b6040516108539190615772565b60405180910390f35b6000806000837bffffffffffffffffffffffffffffffffffffffffffffffffffffffff19167bffffffffffffffffffffffffffffffffffffffffffffffffffffffff1916815260200190815260200160002060009054906101000a900460ff169050919050565b600e602052806000526040600020600091509050806000018054600181600116156101000203166002900480601f01602080910402602001604051908101604052809291908181526020018280546001816001161561010002031660029004801561096f5780601f106109445761010080835404028352916020019161096f565b820191906000526020600020905b81548152906001019060200180831161095257829003601f168201915b505050505090806001018054600181600116156101000203166002900480601f016020809104026020016040519081016040528092919081815260200182805460018160011615610100020316600290048015610a0d5780601f106109e257610100808354040283529160200191610a0d565b820191906000526020600020905b8154815290600101906020018083116109f057829003601f168201915b505050505090806002018054600181600116156101000203166002900480601f016020809104026020016040519081016040528092919081815260200182805460018160011615610100020316600290048015610aab5780601f10610a8057610100808354040283529160200191610aab565b820191906000526020600020905b815481529060010190602001808311610a8e57829003601f168201915b505050505090806003018054600181600116156101000203166002900480601f016020809104026020016040519081016040528092919081815260200182805460018160011615610100020316600290048015610b495780601f10610b1e57610100808354040283529160200191610b49565b820191906000526020600020905b815481529060010190602001808311610b2c57829003601f168201915b5050505050908060040160009054906101000a900473ffffffffffffffffffffffffffffffffffffffff1690806005018054600181600116156101000203166002900480601f016020809104026020016040519081016040528092919081815260200182805460018160011615610100020316600290048015610c0d5780601f10610be257610100808354040283529160200191610c0d565b820191906000526020600020905b815481529060010190602001808311610bf057829003601f168201915b505050505090806006018054600181600116156101000203166002900480601f016020809104026020016040519081016040528092919081815260200182805460018160011615610100020316600290048015610cab5780601f10610c8057610100808354040283529160200191610cab565b820191906000526020600020905b815481529060010190602001808311610c8e57829003601f168201915b5050505050905087565b606060068054600181600116156101000203166002900480601f016020809104026020016040519081016040528092919081815260200182805460018160011615610100020316600290048015610d4d5780601f10610d2257610100808354040283529160200191610d4d565b820191906000526020600020905b815481529060010190602001808311610d3057829003601f168201915b5050505050905090565b6000610d6282613d72565b610db7576040517f08c379a000000000000000000000000000000000000000000000000000000000815260040180806020018281038252602c815260200180615ca8602c913960400191505060405180910390fd5b6004600083815260200190815260200160002060009054906101000a900473ffffffffffffffffffffffffffffffffffffffff169050919050565b6000610dfd826122f0565b90508073ffffffffffffffffffffffffffffffffffffffff168373ffffffffffffffffffffffffffffffffffffffff161415610e84576040517f08c379a0000000000000000000000000000000000000000000000000000000008152600401808060200182810382526021815260200180615d586021913960400191505060405180910390fd5b8073ffffffffffffffffffffffffffffffffffffffff16610ea3613d8f565b73ffffffffffffffffffffffffffffffffffffffff161480610ed25750610ed181610ecc613d8f565b613cde565b5b610f27576040517f08c379a0000000000000000000000000000000000000000000000000000000008152600401808060200182810382526038815260200180615bfb6038913960400191505060405180910390fd5b610f318383613d97565b505050565b600c60008154809291906001019190505550610f53600c54613d72565b15610f5d57600080fd5b601285604051610f6d9190615740565b908152602001604051809103902060009054906101000a900460ff1615610f9357600080fd5b601382604051610fa39190615740565b908152602001604051809103902060009054906101000a900460ff1615610fc957600080fd5b610fd533600c54613e50565b610fe1600c5485614044565b6001601383604051610ff39190615740565b908152602001604051809103902060006101000a81548160ff021916908315150217905550600160128660405161102a9190615740565b908152602001604051809103902060006101000a81548160ff0219169083151502179055506000604051806101600160405280600c5481526020018781526020018481526020018681526020013373ffffffffffffffffffffffffffffffffffffffff1681526020013373ffffffffffffffffffffffffffffffffffffffff168152602001600073ffffffffffffffffffffffffffffffffffffffff168152602001858152602001600081526020016000151581526020018381525090508060116000600c54815260200190815260200160002060008201518160000155602082015181600101908051906020019061112492919061503b565b50604082015181600201908051906020019061114192919061503b565b50606082015181600301908051906020019061115e92919061503b565b5060808201518160040160006101000a81548173ffffffffffffffffffffffffffffffffffffffff021916908373ffffffffffffffffffffffffffffffffffffffff16021790555060a08201518160050160006101000a81548173ffffffffffffffffffffffffffffffffffffffff021916908373ffffffffffffffffffffffffffffffffffffffff16021790555060c08201518160060160006101000a81548173ffffffffffffffffffffffffffffffffffffffff021916908373ffffffffffffffffffffffffffffffffffffffff16021790555060e0820151816007015561010082015181600801556101208201518160090160006101000a81548160ff02191690831515021790555061014082015181600a01908051906020019061128792919061503b565b50905050505050505050565b6013818051602081018201805184825260208301602085012081835280955050505050506000915054906101000a900460ff1681565b60006112d560026140ce565b905090565b60106020528060005260406000206000915054906101000a900460ff1681565b61130b611305613d8f565b826140e3565b611360576040517f08c379a0000000000000000000000000000000000000000000000000000000008152600401808060200182810382526031815260200180615d796031913960400191505060405180910390fd5b61136b8383836141d7565b505050565b600073ffffffffffffffffffffffffffffffffffffffff163373ffffffffffffffffffffffffffffffffffffffff1614156113aa57600080fd5b6113b381613d72565b6113bc57600080fd5b60006113c7826122f0565b9050600073ffffffffffffffffffffffffffffffffffffffff168173ffffffffffffffffffffffffffffffffffffffff16141561140357600080fd5b3373ffffffffffffffffffffffffffffffffffffffff168173ffffffffffffffffffffffffffffffffffffffff16141561143c57600080fd5b6000601160008481526020019081526020016000206040518061016001604052908160008201548152602001600182018054600181600116156101000203166002900480601f0160208091040260200160405190810160405280929190818152602001828054600181600116156101000203166002900480156115005780601f106114d557610100808354040283529160200191611500565b820191906000526020600020905b8154815290600101906020018083116114e357829003601f168201915b50505050508152602001600282018054600181600116156101000203166002900480601f0160208091040260200160405190810160405280929190818152602001828054600181600116156101000203166002900480156115a25780601f10611577576101008083540402835291602001916115a2565b820191906000526020600020905b81548152906001019060200180831161158557829003601f168201915b50505050508152602001600382018054600181600116156101000203166002900480601f0160208091040260200160405190810160405280929190818152602001828054600181600116156101000203166002900480156116445780601f1061161957610100808354040283529160200191611644565b820191906000526020600020905b81548152906001019060200180831161162757829003601f168201915b505050505081526020016004820160009054906101000a900473ffffffffffffffffffffffffffffffffffffffff1673ffffffffffffffffffffffffffffffffffffffff1673ffffffffffffffffffffffffffffffffffffffff1681526020016005820160009054906101000a900473ffffffffffffffffffffffffffffffffffffffff1673ffffffffffffffffffffffffffffffffffffffff1673ffffffffffffffffffffffffffffffffffffffff1681526020016006820160009054906101000a900473ffffffffffffffffffffffffffffffffffffffff1673ffffffffffffffffffffffffffffffffffffffff1673ffffffffffffffffffffffffffffffffffffffff16815260200160078201548152602001600882015481526020016009820160009054906101000a900460ff16151515158152602001600a82018054600181600116156101000203166002900480601f0160208091040260200160405190810160405280929190818152602001828054600181600116156101000203166002900480156118175780601f106117ec57610100808354040283529160200191611817565b820191906000526020600020905b8154815290600101906020018083116117fa57829003601f168201915b50505050508152505090508060e0015134101561183357600080fd5b80610120015161184257600080fd5b61184d8233856141d7565b60008160a0015190508073ffffffffffffffffffffffffffffffffffffffff166108fc349081150290604051600060405180830381858888f1935050505015801561189c573d6000803e3d6000fd5b508160a001518260c0019073ffffffffffffffffffffffffffffffffffffffff16908173ffffffffffffffffffffffffffffffffffffffff1681525050338260a0019073ffffffffffffffffffffffffffffffffffffffff16908173ffffffffffffffffffffffffffffffffffffffff1681525050600182610100018181510191508181525050600082610120019015159081151581525050816011600086815260200190815260200160002060008201518160000155602082015181600101908051906020019061196f92919061503b565b50604082015181600201908051906020019061198c92919061503b565b5060608201518160030190805190602001906119a992919061503b565b5060808201518160040160006101000a81548173ffffffffffffffffffffffffffffffffffffffff021916908373ffffffffffffffffffffffffffffffffffffffff16021790555060a08201518160050160006101000a81548173ffffffffffffffffffffffffffffffffffffffff021916908373ffffffffffffffffffffffffffffffffffffffff16021790555060c08201518160060160006101000a81548173ffffffffffffffffffffffffffffffffffffffff021916908373ffffffffffffffffffffffffffffffffffffffff16021790555060e0820151816007015561010082015181600801556101208201518160090160006101000a81548160ff02191690831515021790555061014082015181600a019080519060200190611ad292919061503b565b5090505050505050565b6000611b2f82600160008673ffffffffffffffffffffffffffffffffffffffff1673ffffffffffffffffffffffffffffffffffffffff16815260200190815260200160002061441a90919063ffffffff16565b905092915050565b600073ffffffffffffffffffffffffffffffffffffffff163373ffffffffffffffffffffffffffffffffffffffff161415611b7157600080fd5b600d600081548092919060010191905055506000600e60008573ffffffffffffffffffffffffffffffffffffffff1673ffffffffffffffffffffffffffffffffffffffff1681526020019081526020016000206040518060e0016040529081600082018054600181600116156101000203166002900480601f016020809104026020016040519081016040528092919081815260200182805460018160011615610100020316600290048015611c685780601f10611c3d57610100808354040283529160200191611c68565b820191906000526020600020905b815481529060010190602001808311611c4b57829003601f168201915b50505050508152602001600182018054600181600116156101000203166002900480601f016020809104026020016040519081016040528092919081815260200182805460018160011615610100020316600290048015611d0a5780601f10611cdf57610100808354040283529160200191611d0a565b820191906000526020600020905b815481529060010190602001808311611ced57829003601f168201915b50505050508152602001600282018054600181600116156101000203166002900480601f016020809104026020016040519081016040528092919081815260200182805460018160011615610100020316600290048015611dac5780601f10611d8157610100808354040283529160200191611dac565b820191906000526020600020905b815481529060010190602001808311611d8f57829003601f168201915b50505050508152602001600382018054600181600116156101000203166002900480601f016020809104026020016040519081016040528092919081815260200182805460018160011615610100020316600290048015611e4e5780601f10611e2357610100808354040283529160200191611e4e565b820191906000526020600020905b815481529060010190602001808311611e3157829003601f168201915b505050505081526020016004820160009054906101000a900473ffffffffffffffffffffffffffffffffffffffff1673ffffffffffffffffffffffffffffffffffffffff1673ffffffffffffffffffffffffffffffffffffffff168152602001600582018054600181600116156101000203166002900480601f016020809104026020016040519081016040528092919081815260200182805460018160011615610100020316600290048015611f465780601f10611f1b57610100808354040283529160200191611f46565b820191906000526020600020905b815481529060010190602001808311611f2957829003601f168201915b50505050508152602001600682018054600181600116156101000203166002900480601f016020809104026020016040519081016040528092919081815260200182805460018160011615610100020316600290048015611fe85780601f10611fbd57610100808354040283529160200191611fe8565b820191906000526020600020905b815481529060010190602001808311611fcb57829003601f168201915b5050505050815250509050878160000181905250828160a0018190525086816020018190525085816040018190525084816060018190525083816080019073ffffffffffffffffffffffffffffffffffffffff16908173ffffffffffffffffffffffffffffffffffffffff1681525050601060008573ffffffffffffffffffffffffffffffffffffffff1673ffffffffffffffffffffffffffffffffffffffff16815260200190815260200160002060009054906101000a900460ff1661210757818160c0018190525083600f6000600d54815260200190815260200160002060006101000a81548173ffffffffffffffffffffffffffffffffffffffff021916908373ffffffffffffffffffffffffffffffffffffffff1602179055505b80600e60008673ffffffffffffffffffffffffffffffffffffffff1673ffffffffffffffffffffffffffffffffffffffff168152602001908152602001600020600082015181600001908051906020019061216392919061503b565b50602082015181600101908051906020019061218092919061503b565b50604082015181600201908051906020019061219d92919061503b565b5060608201518160030190805190602001906121ba92919061503b565b5060808201518160040160006101000a81548173ffffffffffffffffffffffffffffffffffffffff021916908373ffffffffffffffffffffffffffffffffffffffff16021790555060a082015181600501908051906020019061221e92919061503b565b5060c082015181600601908051906020019061223b92919061503b565b509050506001601060008673ffffffffffffffffffffffffffffffffffffffff1673ffffffffffffffffffffffffffffffffffffffff16815260200190815260200160002060006101000a81548160ff0219169083151502179055505050505050505050565b6122bc838383604051806020016040528060008152506135bc565b505050565b600d5481565b6000806122de83600261443490919063ffffffff16565b50905080915050919050565b600c5481565b600061232082604051806060016040528060298152602001615c5d6029913960026144609092919063ffffffff16565b9050919050565b606060098054600181600116156101000203166002900480601f0160208091040260200160405190810160405280929190818152602001828054600181600116156101000203166002900480156123bf5780601f10612394576101008083540402835291602001916123bf565b820191906000526020600020905b8154815290600101906020018083116123a257829003601f168201915b5050505050905090565b600b8054600181600116156101000203166002900480601f01602080910402602001604051908101604052809291908181526020018280546001816001161561010002031660029004801561245f5780601f106124345761010080835404028352916020019161245f565b820191906000526020600020905b81548152906001019060200180831161244257829003601f168201915b505050505081565b60008073ffffffffffffffffffffffffffffffffffffffff168273ffffffffffffffffffffffffffffffffffffffff1614156124ee576040517f08c379a000000000000000000000000000000000000000000000000000000000815260040180806020018281038252602a815260200180615c33602a913960400191505060405180910390fd5b612535600160008473ffffffffffffffffffffffffffffffffffffffff1673ffffffffffffffffffffffffffffffffffffffff16815260200190815260200160002061447f565b9050919050565b606060078054600181600116156101000203166002900480601f0160208091040260200160405190810160405280929190818152602001828054600181600116156101000203166002900480156125d45780601f106125a9576101008083540402835291602001916125d4565b820191906000526020600020905b8154815290600101906020018083116125b757829003601f168201915b5050505050905090565b600073ffffffffffffffffffffffffffffffffffffffff163373ffffffffffffffffffffffffffffffffffffffff16141561261857600080fd5b61262181613d72565b61262a57600080fd5b6000612635826122f0565b9050600073ffffffffffffffffffffffffffffffffffffffff168173ffffffffffffffffffffffffffffffffffffffff16141561267157600080fd5b3373ffffffffffffffffffffffffffffffffffffffff168173ffffffffffffffffffffffffffffffffffffffff1614156126aa57600080fd5b6000601160008481526020019081526020016000206040518061016001604052908160008201548152602001600182018054600181600116156101000203166002900480601f01602080910402602001604051908101604052809291908181526020018280546001816001161561010002031660029004801561276e5780601f106127435761010080835404028352916020019161276e565b820191906000526020600020905b81548152906001019060200180831161275157829003601f168201915b50505050508152602001600282018054600181600116156101000203166002900480601f0160208091040260200160405190810160405280929190818152602001828054600181600116156101000203166002900480156128105780601f106127e557610100808354040283529160200191612810565b820191906000526020600020905b8154815290600101906020018083116127f357829003601f168201915b50505050508152602001600382018054600181600116156101000203166002900480601f0160208091040260200160405190810160405280929190818152602001828054600181600116156101000203166002900480156128b25780601f10612887576101008083540402835291602001916128b2565b820191906000526020600020905b81548152906001019060200180831161289557829003601f168201915b505050505081526020016004820160009054906101000a900473ffffffffffffffffffffffffffffffffffffffff1673ffffffffffffffffffffffffffffffffffffffff1673ffffffffffffffffffffffffffffffffffffffff1681526020016005820160009054906101000a900473ffffffffffffffffffffffffffffffffffffffff1673ffffffffffffffffffffffffffffffffffffffff1673ffffffffffffffffffffffffffffffffffffffff1681526020016006820160009054906101000a900473ffffffffffffffffffffffffffffffffffffffff1673ffffffffffffffffffffffffffffffffffffffff1673ffffffffffffffffffffffffffffffffffffffff16815260200160078201548152602001600882015481526020016009820160009054906101000a900460ff16151515158152602001600a82018054600181600116156101000203166002900480601f016020809104026020016040519081016040528092919081815260200182805460018160011615610100020316600290048015612a855780601f10612a5a57610100808354040283529160200191612a85565b820191906000526020600020905b815481529060010190602001808311612a6857829003601f168201915b50505050508152505090508060e00151341015612aa157600080fd5b806101200151612ab057600080fd5b612abb8285856141d7565b60008160a0015190508073ffffffffffffffffffffffffffffffffffffffff166108fc349081150290604051600060405180830381858888f19350505050158015612b0a573d6000803e3d6000fd5b508160a001518260c0019073ffffffffffffffffffffffffffffffffffffffff16908173ffffffffffffffffffffffffffffffffffffffff1681525050848260a0019073ffffffffffffffffffffffffffffffffffffffff16908173ffffffffffffffffffffffffffffffffffffffff16815250506001826101000181815101915081815250506000826101200190151590811515815250508160116000868152602001908152602001600020600082015181600001556020820151816001019080519060200190612bdd92919061503b565b506040820151816002019080519060200190612bfa92919061503b565b506060820151816003019080519060200190612c1792919061503b565b5060808201518160040160006101000a81548173ffffffffffffffffffffffffffffffffffffffff021916908373ffffffffffffffffffffffffffffffffffffffff16021790555060a08201518160050160006101000a81548173ffffffffffffffffffffffffffffffffffffffff021916908373ffffffffffffffffffffffffffffffffffffffff16021790555060c08201518160060160006101000a81548173ffffffffffffffffffffffffffffffffffffffff021916908373ffffffffffffffffffffffffffffffffffffffff16021790555060e0820151816007015561010082015181600801556101208201518160090160006101000a81548160ff02191690831515021790555061014082015181600a019080519060200190612d4092919061503b565b509050505050505050565b612d53613d8f565b73ffffffffffffffffffffffffffffffffffffffff168273ffffffffffffffffffffffffffffffffffffffff161415612df4576040517f08c379a00000000000000000000000000000000000000000000000000000000081526004018080602001828103825260198152602001807f4552433732313a20617070726f766520746f2063616c6c65720000000000000081525060200191505060405180910390fd5b8060056000612e01613d8f565b73ffffffffffffffffffffffffffffffffffffffff1673ffffffffffffffffffffffffffffffffffffffff16815260200190815260200160002060008473ffffffffffffffffffffffffffffffffffffffff1673ffffffffffffffffffffffffffffffffffffffff16815260200190815260200160002060006101000a81548160ff0219169083151502179055508173ffffffffffffffffffffffffffffffffffffffff16612eae613d8f565b73ffffffffffffffffffffffffffffffffffffffff167f17307eab39ab6107e8899845ad3d59bd9653f200f220920489ca2b5937696c318360405180821515815260200191505060405180910390a35050565b600073ffffffffffffffffffffffffffffffffffffffff163373ffffffffffffffffffffffffffffffffffffffff161415612f3b57600080fd5b612f4481613d72565b612f4d57600080fd5b6000612f58826122f0565b90503373ffffffffffffffffffffffffffffffffffffffff168173ffffffffffffffffffffffffffffffffffffffff1614612f9257600080fd5b6000601160008481526020019081526020016000206040518061016001604052908160008201548152602001600182018054600181600116156101000203166002900480601f0160208091040260200160405190810160405280929190818152602001828054600181600116156101000203166002900480156130565780601f1061302b57610100808354040283529160200191613056565b820191906000526020600020905b81548152906001019060200180831161303957829003601f168201915b50505050508152602001600282018054600181600116156101000203166002900480601f0160208091040260200160405190810160405280929190818152602001828054600181600116156101000203166002900480156130f85780601f106130cd576101008083540402835291602001916130f8565b820191906000526020600020905b8154815290600101906020018083116130db57829003601f168201915b50505050508152602001600382018054600181600116156101000203166002900480601f01602080910402602001604051908101604052809291908181526020018280546001816001161561010002031660029004801561319a5780601f1061316f5761010080835404028352916020019161319a565b820191906000526020600020905b81548152906001019060200180831161317d57829003601f168201915b505050505081526020016004820160009054906101000a900473ffffffffffffffffffffffffffffffffffffffff1673ffffffffffffffffffffffffffffffffffffffff1673ffffffffffffffffffffffffffffffffffffffff1681526020016005820160009054906101000a900473ffffffffffffffffffffffffffffffffffffffff1673ffffffffffffffffffffffffffffffffffffffff1673ffffffffffffffffffffffffffffffffffffffff1681526020016006820160009054906101000a900473ffffffffffffffffffffffffffffffffffffffff1673ffffffffffffffffffffffffffffffffffffffff1673ffffffffffffffffffffffffffffffffffffffff16815260200160078201548152602001600882015481526020016009820160009054906101000a900460ff16151515158152602001600a82018054600181600116156101000203166002900480601f01602080910402602001604051908101604052809291908181526020018280546001816001161561010002031660029004801561336d5780601f106133425761010080835404028352916020019161336d565b820191906000526020600020905b81548152906001019060200180831161335057829003601f168201915b50505050508152505090508061012001511561339a576000816101200190151590811515815250506133ad565b6001816101200190151590811515815250505b80601160008581526020019081526020016000206000820151816000015560208201518160010190805190602001906133e792919061503b565b50604082015181600201908051906020019061340492919061503b565b50606082015181600301908051906020019061342192919061503b565b5060808201518160040160006101000a81548173ffffffffffffffffffffffffffffffffffffffff021916908373ffffffffffffffffffffffffffffffffffffffff16021790555060a08201518160050160006101000a81548173ffffffffffffffffffffffffffffffffffffffff021916908373ffffffffffffffffffffffffffffffffffffffff16021790555060c08201518160060160006101000a81548173ffffffffffffffffffffffffffffffffffffffff021916908373ffffffffffffffffffffffffffffffffffffffff16021790555060e0820151816007015561010082015181600801556101208201518160090160006101000a81548160ff02191690831515021790555061014082015181600a01908051906020019061354a92919061503b565b50905050505050565b6012818051602081018201805184825260208301602085012081835280955050505050506000915054906101000a900460ff1681565b600f6020528060005260406000206000915054906101000a900473ffffffffffffffffffffffffffffffffffffffff1681565b6135cd6135c7613d8f565b836140e3565b613622576040517f08c379a0000000000000000000000000000000000000000000000000000000008152600401808060200182810382526031815260200180615d796031913960400191505060405180910390fd5b61362e84848484614494565b50505050565b6011602052806000526040600020600091509050806000015490806001018054600181600116156101000203166002900480601f0160208091040260200160405190810160405280929190818152602001828054600181600116156101000203166002900480156136e65780601f106136bb576101008083540402835291602001916136e6565b820191906000526020600020905b8154815290600101906020018083116136c957829003601f168201915b505050505090806002018054600181600116156101000203166002900480601f0160208091040260200160405190810160405280929190818152602001828054600181600116156101000203166002900480156137845780601f1061375957610100808354040283529160200191613784565b820191906000526020600020905b81548152906001019060200180831161376757829003601f168201915b505050505090806003018054600181600116156101000203166002900480601f0160208091040260200160405190810160405280929190818152602001828054600181600116156101000203166002900480156138225780601f106137f757610100808354040283529160200191613822565b820191906000526020600020905b81548152906001019060200180831161380557829003601f168201915b5050505050908060040160009054906101000a900473ffffffffffffffffffffffffffffffffffffffff16908060050160009054906101000a900473ffffffffffffffffffffffffffffffffffffffff16908060060160009054906101000a900473ffffffffffffffffffffffffffffffffffffffff16908060070154908060080154908060090160009054906101000a900460ff169080600a018054600181600116156101000203166002900480601f0160208091040260200160405190810160405280929190818152602001828054600181600116156101000203166002900480156139515780601f1061392657610100808354040283529160200191613951565b820191906000526020600020905b81548152906001019060200180831161393457829003601f168201915b505050505090508b565b606061396682613d72565b6139bb576040517f08c379a000000000000000000000000000000000000000000000000000000000815260040180806020018281038252602f815260200180615d29602f913960400191505060405180910390fd5b6000600860008481526020019081526020016000208054600181600116156101000203166002900480601f016020809104026020016040519081016040528092919081815260200182805460018160011615610100020316600290048015613a645780601f10613a3957610100808354040283529160200191613a64565b820191906000526020600020905b815481529060010190602001808311613a4757829003601f168201915b505050505090506000613a75612327565b9050600081511415613a8b578192505050613c27565b600082511115613b5c5780826040516020018083805190602001908083835b60208310613acd5780518252602082019150602081019050602083039250613aaa565b6001836020036101000a03801982511681845116808217855250505050505090500182805190602001908083835b60208310613b1e5780518252602082019150602081019050602083039250613afb565b6001836020036101000a0380198251168184511680821785525050505050509050019250505060405160208183030381529060405292505050613c27565b80613b6685614506565b6040516020018083805190602001908083835b60208310613b9c5780518252602082019150602081019050602083039250613b79565b6001836020036101000a03801982511681845116808217855250505050505090500182805190602001908083835b60208310613bed5780518252602082019150602081019050602083039250613bca565b6001836020036101000a03801982511681845116808217855250505050505090500192505050604051602081830303815290604052925050505b919050565b600080613c376112c9565b90508091505090565b600a8054600181600116156101000203166002900480601f016020809104026020016040519081016040528092919081815260200182805460018160011615610100020316600290048015613cd65780601f10613cab57610100808354040283529160200191613cd6565b820191906000526020600020905b815481529060010190602001808311613cb957829003601f168201915b505050505081565b6000600560008473ffffffffffffffffffffffffffffffffffffffff1673ffffffffffffffffffffffffffffffffffffffff16815260200190815260200160002060008373ffffffffffffffffffffffffffffffffffffffff1673ffffffffffffffffffffffffffffffffffffffff16815260200190815260200160002060009054906101000a900460ff16905092915050565b6000613d8882600261464d90919063ffffffff16565b9050919050565b600033905090565b816004600083815260200190815260200160002060006101000a81548173ffffffffffffffffffffffffffffffffffffffff021916908373ffffffffffffffffffffffffffffffffffffffff160217905550808273ffffffffffffffffffffffffffffffffffffffff16613e0a836122f0565b73ffffffffffffffffffffffffffffffffffffffff167f8c5be1e5ebec7d5bd14f71427d1e84f3dd0314c0f7b2291e5b200ac8c7c3b92560405160405180910390a45050565b600073ffffffffffffffffffffffffffffffffffffffff168273ffffffffffffffffffffffffffffffffffffffff161415613ef3576040517f08c379a00000000000000000000000000000000000000000000000000000000081526004018080602001828103825260208152602001807f4552433732313a206d696e7420746f20746865207a65726f206164647265737381525060200191505060405180910390fd5b613efc81613d72565b15613f6f576040517f08c379a000000000000000000000000000000000000000000000000000000000815260040180806020018281038252601c8152602001807f4552433732313a20746f6b656e20616c7265616479206d696e7465640000000081525060200191505060405180910390fd5b613f7b60008383614667565b613fcc81600160008573ffffffffffffffffffffffffffffffffffffffff1673ffffffffffffffffffffffffffffffffffffffff16815260200190815260200160002061466c90919063ffffffff16565b50613fe3818360026146869092919063ffffffff16565b50808273ffffffffffffffffffffffffffffffffffffffff16600073ffffffffffffffffffffffffffffffffffffffff167fddf252ad1be2c89b69c2b068fc378daa952ba7f163c4a11628f55a4df523b3ef60405160405180910390a45050565b61404d82613d72565b6140a2576040517f08c379a000000000000000000000000000000000000000000000000000000000815260040180806020018281038252602c815260200180615cd4602c913960400191505060405180910390fd5b806008600084815260200190815260200160002090805190602001906140c992919061503b565b505050565b60006140dc826000016146bb565b9050919050565b60006140ee82613d72565b614143576040517f08c379a000000000000000000000000000000000000000000000000000000000815260040180806020018281038252602c815260200180615bcf602c913960400191505060405180910390fd5b600061414e836122f0565b90508073ffffffffffffffffffffffffffffffffffffffff168473ffffffffffffffffffffffffffffffffffffffff1614806141bd57508373ffffffffffffffffffffffffffffffffffffffff166141a584610d57565b73ffffffffffffffffffffffffffffffffffffffff16145b806141ce57506141cd8185613cde565b5b91505092915050565b8273ffffffffffffffffffffffffffffffffffffffff166141f7826122f0565b73ffffffffffffffffffffffffffffffffffffffff1614614263576040517f08c379a0000000000000000000000000000000000000000000000000000000008152600401808060200182810382526029815260200180615d006029913960400191505060405180910390fd5b600073ffffffffffffffffffffffffffffffffffffffff168273ffffffffffffffffffffffffffffffffffffffff1614156142e9576040517f08c379a0000000000000000000000000000000000000000000000000000000008152600401808060200182810382526024815260200180615b856024913960400191505060405180910390fd5b6142f4838383614667565b6142ff600082613d97565b61435081600160008673ffffffffffffffffffffffffffffffffffffffff1673ffffffffffffffffffffffffffffffffffffffff1681526020019081526020016000206146cc90919063ffffffff16565b506143a281600160008573ffffffffffffffffffffffffffffffffffffffff1673ffffffffffffffffffffffffffffffffffffffff16815260200190815260200160002061466c90919063ffffffff16565b506143b9818360026146869092919063ffffffff16565b50808273ffffffffffffffffffffffffffffffffffffffff168473ffffffffffffffffffffffffffffffffffffffff167fddf252ad1be2c89b69c2b068fc378daa952ba7f163c4a11628f55a4df523b3ef60405160405180910390a4505050565b600061442983600001836146e6565b60001c905092915050565b6000806000806144478660000186614769565b915091508160001c8160001c9350935050509250929050565b6000614473846000018460001b84614802565b60001c90509392505050565b600061448d826000016148f8565b9050919050565b61449f8484846141d7565b6144ab84848484614909565b614500576040517f08c379a0000000000000000000000000000000000000000000000000000000008152600401808060200182810382526032815260200180615b536032913960400191505060405180910390fd5b50505050565b6060600082141561454e576040518060400160405280600181526020017f30000000000000000000000000000000000000000000000000000000000000008152509050614648565b600082905060005b60008214614578578080600101915050600a828161457057fe5b049150614556565b60008167ffffffffffffffff8111801561459157600080fd5b506040519080825280601f01601f1916602001820160405280156145c45781602001600182028036833780820191505090505b50905060006001830390508593505b6000841461464057600a84816145e557fe5b0660300160f81b828280600190039350815181106145ff57fe5b60200101907effffffffffffffffffffffffffffffffffffffffffffffffffffffffffffff1916908160001a905350600a848161463857fe5b0493506145d3565b819450505050505b919050565b600061465f836000018360001b614b22565b905092915050565b505050565b600061467e836000018360001b614b45565b905092915050565b60006146b2846000018460001b8473ffffffffffffffffffffffffffffffffffffffff1660001b614bb5565b90509392505050565b600081600001805490509050919050565b60006146de836000018360001b614c91565b905092915050565b600081836000018054905011614747576040517f08c379a0000000000000000000000000000000000000000000000000000000008152600401808060200182810382526022815260200180615b316022913960400191505060405180910390fd5b82600001828154811061475657fe5b9060005260206000200154905092915050565b600080828460000180549050116147cb576040517f08c379a0000000000000000000000000000000000000000000000000000000008152600401808060200182810382526022815260200180615c866022913960400191505060405180910390fd5b60008460000184815481106147dc57fe5b906000526020600020906002020190508060000154816001015492509250509250929050565b600080846001016000858152602001908152602001600020549050600081141583906148c9576040517f08c379a00000000000000000000000000000000000000000000000000000000081526004018080602001828103825283818151815260200191508051906020019080838360005b8381101561488e578082015181840152602081019050614873565b50505050905090810190601f1680156148bb5780820380516001836020036101000a031916815260200191505b509250505060405180910390fd5b508460000160018203815481106148dc57fe5b9060005260206000209060020201600101549150509392505050565b600081600001805490509050919050565b600061492a8473ffffffffffffffffffffffffffffffffffffffff16614d79565b6149375760019050614b1a565b6000614aa163150b7a0260e01b61494c613d8f565b888787604051602401808573ffffffffffffffffffffffffffffffffffffffff1681526020018473ffffffffffffffffffffffffffffffffffffffff16815260200183815260200180602001828103825283818151815260200191508051906020019080838360005b838110156149d05780820151818401526020810190506149b5565b50505050905090810190601f1680156149fd5780820380516001836020036101000a031916815260200191505b5095505050505050604051602081830303815290604052907bffffffffffffffffffffffffffffffffffffffffffffffffffffffff19166020820180517bffffffffffffffffffffffffffffffffffffffffffffffffffffffff8381831617835250505050604051806060016040528060328152602001615b53603291398773ffffffffffffffffffffffffffffffffffffffff16614d8c9092919063ffffffff16565b90506000818060200190516020811015614aba57600080fd5b8101908080519060200190929190505050905063150b7a0260e01b7bffffffffffffffffffffffffffffffffffffffffffffffffffffffff1916817bffffffffffffffffffffffffffffffffffffffffffffffffffffffff191614925050505b949350505050565b600080836001016000848152602001908152602001600020541415905092915050565b6000614b518383614da4565b614baa578260000182908060018154018082558091505060019003906000526020600020016000909190919091505582600001805490508360010160008481526020019081526020016000208190555060019050614baf565b600090505b92915050565b6000808460010160008581526020019081526020016000205490506000811415614c5c57846000016040518060400160405280868152602001858152509080600181540180825580915050600190039060005260206000209060020201600090919091909150600082015181600001556020820151816001015550508460000180549050856001016000868152602001908152602001600020819055506001915050614c8a565b82856000016001830381548110614c6f57fe5b90600052602060002090600202016001018190555060009150505b9392505050565b60008083600101600084815260200190815260200160002054905060008114614d6d5760006001820390506000600186600001805490500390506000866000018281548110614cdc57fe5b9060005260206000200154905080876000018481548110614cf957fe5b9060005260206000200181905550600183018760010160008381526020019081526020016000208190555086600001805480614d3157fe5b60019003818190600052602060002001600090559055866001016000878152602001908152602001600020600090556001945050505050614d73565b60009150505b92915050565b600080823b905060008111915050919050565b6060614d9b8484600085614dc7565b90509392505050565b600080836001016000848152602001908152602001600020541415905092915050565b606082471015614e22576040517f08c379a0000000000000000000000000000000000000000000000000000000008152600401808060200182810382526026815260200180615ba96026913960400191505060405180910390fd5b614e2b85614d79565b614e9d576040517f08c379a000000000000000000000000000000000000000000000000000000000815260040180806020018281038252601d8152602001807f416464726573733a2063616c6c20746f206e6f6e2d636f6e747261637400000081525060200191505060405180910390fd5b6000808673ffffffffffffffffffffffffffffffffffffffff1685876040518082805190602001908083835b60208310614eec5780518252602082019150602081019050602083039250614ec9565b6001836020036101000a03801982511681845116808217855250505050505090500191505060006040518083038185875af1925050503d8060008114614f4e576040519150601f19603f3d011682016040523d82523d6000602084013e614f53565b606091505b5091509150614f63828286614f6f565b92505050949350505050565b60608315614f7f57829050615034565b600083511115614f925782518084602001fd5b816040517f08c379a00000000000000000000000000000000000000000000000000000000081526004018080602001828103825283818151815260200191508051906020019080838360005b83811015614ff9578082015181840152602081019050614fde565b50505050905090810190601f1680156150265780820380516001836020036101000a031916815260200191505b509250505060405180910390fd5b9392505050565b828054600181600116156101000203166002900490600052602060002090601f01602090048101928261507157600085556150b8565b82601f1061508a57805160ff19168380011785556150b8565b828001600101855582156150b8579182015b828111156150b757825182559160200191906001019061509c565b5b5090506150c591906150c9565b5090565b5b808211156150e25760008160009055506001016150ca565b5090565b60006150f96150f48461595b565b61592a565b90508281526020810184848401111561511157600080fd5b61511c848285615a68565b509392505050565b60006151376151328461598b565b61592a565b90508281526020810184848401111561514f57600080fd5b61515a848285615a68565b509392505050565b60008135905061517181615abd565b92915050565b60008135905061518681615ad4565b92915050565b60008135905061519b81615aeb565b92915050565b6000813590506151b081615b02565b92915050565b600082601f8301126151c757600080fd5b81356151d78482602086016150e6565b91505092915050565b600082601f8301126151f157600080fd5b8135615201848260208601615124565b91505092915050565b60008135905061521981615b19565b92915050565b60006020828403121561523157600080fd5b600061523f84828501615162565b91505092915050565b6000806040838503121561525b57600080fd5b600061526985828601615177565b925050602061527a8582860161520a565b9150509250929050565b6000806040838503121561529757600080fd5b60006152a585828601615162565b92505060206152b685828601615162565b9150509250929050565b6000806000606084860312156152d557600080fd5b60006152e386828701615162565b93505060206152f486828701615162565b92505060406153058682870161520a565b9150509250925092565b6000806000806080858703121561532557600080fd5b600061533387828801615162565b945050602061534487828801615162565b93505060406153558782880161520a565b925050606085013567ffffffffffffffff81111561537257600080fd5b61537e878288016151b6565b91505092959194509250565b6000806040838503121561539d57600080fd5b60006153ab85828601615162565b92505060206153bc8582860161518c565b9150509250929050565b600080604083850312156153d957600080fd5b60006153e785828601615162565b92505060206153f88582860161520a565b9150509250929050565b60006020828403121561541457600080fd5b6000615422848285016151a1565b91505092915050565b60006020828403121561543d57600080fd5b600082013567ffffffffffffffff81111561545757600080fd5b615463848285016151e0565b91505092915050565b600080600080600080600060e0888a03121561548757600080fd5b600088013567ffffffffffffffff8111156154a157600080fd5b6154ad8a828b016151e0565b975050602088013567ffffffffffffffff8111156154ca57600080fd5b6154d68a828b016151e0565b965050604088013567ffffffffffffffff8111156154f357600080fd5b6154ff8a828b016151e0565b955050606088013567ffffffffffffffff81111561551c57600080fd5b6155288a828b016151e0565b94505060806155398a828b01615162565b93505060a088013567ffffffffffffffff81111561555657600080fd5b6155628a828b016151e0565b92505060c088013567ffffffffffffffff81111561557f57600080fd5b61558b8a828b016151e0565b91505092959891949750929550565b600080600080600060a086880312156155b257600080fd5b600086013567ffffffffffffffff8111156155cc57600080fd5b6155d8888289016151e0565b955050602086013567ffffffffffffffff8111156155f557600080fd5b615601888289016151e0565b94505060406156128882890161520a565b935050606086013567ffffffffffffffff81111561562f57600080fd5b61563b888289016151e0565b925050608086013567ffffffffffffffff81111561565857600080fd5b615664888289016151e0565b9150509295509295909350565b60006020828403121561568357600080fd5b60006156918482850161520a565b91505092915050565b6156a3816159f4565b82525050565b6156b2816159e2565b82525050565b6156c181615a06565b82525050565b60006156d2826159bb565b6156dc81856159c6565b93506156ec818560208601615a77565b6156f581615aac565b840191505092915050565b600061570b826159bb565b61571581856159d7565b9350615725818560208601615a77565b80840191505092915050565b61573a81615a5e565b82525050565b600061574c8284615700565b915081905092915050565b600060208201905061576c60008301846156a9565b92915050565b600060208201905061578760008301846156b8565b92915050565b600060208201905081810360008301526157a781846156c7565b905092915050565b600060e08201905081810360008301526157c9818a6156c7565b905081810360208301526157dd81896156c7565b905081810360408301526157f181886156c7565b9050818103606083015261580581876156c7565b905061581460808301866156a9565b81810360a083015261582681856156c7565b905081810360c083015261583a81846156c7565b905098975050505050505050565b600060208201905061585d6000830184615731565b92915050565b600061016082019050615879600083018e615731565b818103602083015261588b818d6156c7565b9050818103604083015261589f818c6156c7565b905081810360608301526158b3818b6156c7565b90506158c2608083018a61569a565b6158cf60a083018961569a565b6158dc60c083018861569a565b6158e960e0830187615731565b6158f7610100830186615731565b6159056101208301856156b8565b81810361014083015261591881846156c7565b90509c9b505050505050505050505050565b6000604051905081810181811067ffffffffffffffff8211171561595157615950615aaa565b5b8060405250919050565b600067ffffffffffffffff82111561597657615975615aaa565b5b601f19601f8301169050602081019050919050565b600067ffffffffffffffff8211156159a6576159a5615aaa565b5b601f19601f8301169050602081019050919050565b600081519050919050565b600082825260208201905092915050565b600081905092915050565b60006159ed82615a3e565b9050919050565b60006159ff82615a3e565b9050919050565b60008115159050919050565b60007fffffffff0000000000000000000000000000000000000000000000000000000082169050919050565b600073ffffffffffffffffffffffffffffffffffffffff82169050919050565b6000819050919050565b82818337600083830152505050565b60005b83811015615a95578082015181840152602081019050615a7a565b83811115615aa4576000848401525b50505050565bfe5b6000601f19601f8301169050919050565b615ac6816159e2565b8114615ad157600080fd5b50565b615add816159f4565b8114615ae857600080fd5b50565b615af481615a06565b8114615aff57600080fd5b50565b615b0b81615a12565b8114615b1657600080fd5b50565b615b2281615a5e565b8114615b2d57600080fd5b5056fe456e756d657261626c655365743a20696e646578206f7574206f6620626f756e64734552433732313a207472616e7366657220746f206e6f6e20455243373231526563656976657220696d706c656d656e7465724552433732313a207472616e7366657220746f20746865207a65726f2061646472657373416464726573733a20696e73756666696369656e742062616c616e636520666f722063616c6c4552433732313a206f70657261746f7220717565727920666f72206e6f6e6578697374656e7420746f6b656e4552433732313a20617070726f76652063616c6c6572206973206e6f74206f776e6572206e6f7220617070726f76656420666f7220616c6c4552433732313a2062616c616e636520717565727920666f7220746865207a65726f20616464726573734552433732313a206f776e657220717565727920666f72206e6f6e6578697374656e7420746f6b656e456e756d657261626c654d61703a20696e646578206f7574206f6620626f756e64734552433732313a20617070726f76656420717565727920666f72206e6f6e6578697374656e7420746f6b656e4552433732314d657461646174613a2055524920736574206f66206e6f6e6578697374656e7420746f6b656e4552433732313a207472616e73666572206f6620746f6b656e2074686174206973206e6f74206f776e4552433732314d657461646174613a2055524920717565727920666f72206e6f6e6578697374656e7420746f6b656e4552433732313a20617070726f76616c20746f2063757272656e74206f776e65724552433732313a207472616e736665722063616c6c6572206973206e6f74206f776e6572206e6f7220617070726f766564a2646970667358221220112cfcbeac5de9c6b0ab33095837bd3e6a88a5a25947fcef4f2b3b54ed7fdf9b64736f6c63430007060033",
  "immutableReferences": {},
  "source": "// SPDX-License-Identifier: MIT\r\npragma solidity >=0.4.21 <0.8.0;\r\npragma abicoder v2;\r\n\r\nimport \"./ERC721.sol\";\r\n\r\ncontract Marketplace is ERC721 {\r\n    string public collectionName;\r\n\r\n    string public collectionNameSymbol;\r\n\r\n    uint256 public NFTCounter;\r\n\r\n    uint256 public UserCounter;\r\n\r\n    struct NFT {\r\n        uint256 tokenId;\r\n        string tokenName;\r\n        string tokenImage;\r\n        string tokenURI;\r\n        address payable mintedBy;\r\n        address payable currentOwner;\r\n        address payable previousOwner;\r\n        uint256 price;\r\n        uint256 numberOfTransfers;\r\n        bool forSale;\r\n        string des;\r\n    }\r\n\r\n    struct UserProfile {\r\n        string bannerHash;\r\n        string imageHash;\r\n        string name;\r\n        string description;\r\n        address user;\r\n        string email;\r\n        string timeOfRegistry;\r\n    }\r\n\r\n    mapping(address => UserProfile) public allProfiles;\r\n\r\n    mapping(uint256 => address) public allAddress;\r\n\r\n    mapping(address => bool) public isProfileSet;\r\n\r\n    mapping(uint256 => NFT) public allNFTs;\r\n\r\n    mapping(string => bool) public tokenNameExists;\r\n\r\n    mapping(string => bool) public tokenImageExists;\r\n\r\n    constructor() ERC721(\"NFT Collection\", \"NFT\") {\r\n        collectionName = name();\r\n        collectionNameSymbol = symbol();\r\n    }\r\n\r\n    function mintNFT(\r\n        string memory _name,\r\n        string memory _tokenURI,\r\n        uint256 _price,\r\n        string memory _imageHash,\r\n        string memory _desc\r\n    ) external {\r\n        NFTCounter++;\r\n        require(!_exists(NFTCounter));\r\n        require(!tokenNameExists[_name]);\r\n        require(!tokenImageExists[_imageHash]);\r\n\r\n        _mint(msg.sender, NFTCounter);\r\n\r\n        _setTokenURI(NFTCounter, _tokenURI);\r\n\r\n        tokenImageExists[_imageHash] = true;\r\n\r\n        tokenNameExists[_name] = true;\r\n\r\n        NFT memory newNFT = NFT(\r\n            NFTCounter,\r\n            _name,\r\n            _imageHash,\r\n            _tokenURI,\r\n            msg.sender,\r\n            msg.sender,\r\n            address(0),\r\n            _price,\r\n            0,\r\n            false,\r\n            _desc\r\n        );\r\n        allNFTs[NFTCounter] = newNFT;\r\n    }\r\n\r\n    function getNumberOfTokensMinted() public view returns (uint256) {\r\n        uint256 total = totalSupply();\r\n        return total;\r\n    }\r\n\r\n    function buyToken(uint256 _tokenId) public payable {\r\n        // check if the function caller is not an zero account address\r\n        require(msg.sender != address(0));\r\n\r\n        // check if the token id of the token being bought exists or not\r\n        require(_exists(_tokenId));\r\n\r\n        // get the token's owner\r\n        address owner = ownerOf(_tokenId);\r\n\r\n        // token's owner should not be an zero address account\r\n        require(owner != address(0));\r\n\r\n        // the one who wants to buy the token should not be the token's owner\r\n        require(owner != msg.sender);\r\n\r\n        // get that token from all NFT mapping and create a memory of it defined as (struct => NFT)\r\n        NFT memory nft = allNFTs[_tokenId];\r\n\r\n        // price sent in to buy should be equal to or more than the token's price\r\n        require(msg.value >= nft.price);\r\n\r\n        // token should be for sale\r\n        require(nft.forSale);\r\n\r\n        // transfer the token from owner to the caller of the function (buyer)\r\n        _transfer(owner, msg.sender, _tokenId);\r\n\r\n        // get owner of the token\r\n        address payable sendTo = nft.currentOwner;\r\n\r\n        // send token's worth of ethers to the owner\r\n        sendTo.transfer(msg.value);\r\n\r\n        // update the token's previous owner\r\n        nft.previousOwner = nft.currentOwner;\r\n\r\n        // update the token's current owner\r\n        nft.currentOwner = msg.sender;\r\n\r\n        // update the how many times this token was transfered\r\n        nft.numberOfTransfers += 1;\r\n\r\n        // toggle the forSale parameter of token\r\n        nft.forSale = false;\r\n\r\n        // set and update that token in the mapping\r\n        allNFTs[_tokenId] = nft;\r\n    }\r\n\r\n    function buyToken2(address payable _accountAddress, uint256 _tokenId)\r\n        public\r\n        payable\r\n    {\r\n        // check if the function caller is not an zero account address\r\n        require(msg.sender != address(0));\r\n\r\n        // check if the token id of the token being bought exists or not\r\n        require(_exists(_tokenId));\r\n\r\n        // get the token's owner\r\n        address owner = ownerOf(_tokenId);\r\n\r\n        // token's owner should not be an zero address account\r\n        require(owner != address(0));\r\n\r\n        // the one who wants to buy the token should not be the token's owner\r\n        require(owner != msg.sender);\r\n\r\n        // get that token from all NFT mapping and create a memory of it defined as (struct => NFT)\r\n        NFT memory nft = allNFTs[_tokenId];\r\n\r\n        // price sent in to buy should be equal to or more than the token's price\r\n        require(msg.value >= nft.price);\r\n\r\n        // token should be for sale\r\n        require(nft.forSale);\r\n\r\n        // transfer the token from owner to the caller of the function (buyer)\r\n        _transfer(owner, _accountAddress, _tokenId);\r\n\r\n        // get owner of the token\r\n        address payable sendTo = nft.currentOwner;\r\n\r\n        // send token's worth of ethers to the owner\r\n        sendTo.transfer(msg.value);\r\n\r\n        // update the token's previous owner\r\n        nft.previousOwner = nft.currentOwner;\r\n\r\n        // update the token's current owner\r\n        nft.currentOwner = _accountAddress;\r\n\r\n        // update the how many times this token was transfered\r\n        nft.numberOfTransfers += 1;\r\n\r\n        // toggle the forSale parameter of token\r\n        nft.forSale = false;\r\n\r\n        // set and update that token in the mapping\r\n        allNFTs[_tokenId] = nft;\r\n    }\r\n\r\n    function toggleForSale(uint256 _tokenId) public {\r\n        // require caller of the function is not an empty address\r\n        require(msg.sender != address(0));\r\n\r\n        // require that token should exist\r\n        require(_exists(_tokenId));\r\n\r\n        // get the token's owner\r\n        address owner = ownerOf(_tokenId);\r\n\r\n        // check that token's owner should be equal to the caller of the function\r\n        require(owner == msg.sender);\r\n\r\n        // get that token from all NFT mapping and create a memory of it defined as (struct => NFT)\r\n        NFT memory nft = allNFTs[_tokenId];\r\n\r\n        // if token's forSale is false make it true and vice versa\r\n        if (nft.forSale) {\r\n            nft.forSale = false;\r\n        } else {\r\n            nft.forSale = true;\r\n        }\r\n\r\n        // set and update that token in the mapping\r\n        allNFTs[_tokenId] = nft;\r\n    }\r\n\r\n    function addUserProfile(\r\n        string memory _bannerHash,\r\n        string memory _imageHash,\r\n        string memory _name,\r\n        string memory _bio,\r\n        address _user,\r\n        string memory _email,\r\n        string memory _timestamp\r\n    ) external {\r\n        require(msg.sender != address(0));\r\n\r\n        UserCounter++;\r\n\r\n        UserProfile memory userprofile = allProfiles[_user];\r\n\r\n        userprofile.bannerHash = _bannerHash;\r\n        userprofile.email = _email;\r\n        userprofile.imageHash = _imageHash;\r\n        userprofile.name = _name;\r\n        userprofile.description = _bio;\r\n        userprofile.user = _user;\r\n\r\n        if (!isProfileSet[_user]) {\r\n            userprofile.timeOfRegistry = _timestamp;\r\n            allAddress[UserCounter] = _user;\r\n        }\r\n\r\n        allProfiles[_user] = userprofile;\r\n        isProfileSet[_user] = true;\r\n    }\r\n}\r\n",
  "sourcePath": "C:\\Users\\paras mehta\\vjti-hackathon-frontend\\contracts\\Marketplace.sol",
  "compiler": {
    "name": "solc",
    "version": "0.7.6+commit.7338295f.Emscripten.clang"
  },
  "schemaVersion": "3.4.4",
  "updatedAt": "2023-02-25T03:56:45.143Z",
  "networkType": "ethereum",
  "devdoc": {
    "kind": "dev",
    "methods": {
      "approve(address,uint256)": {
        "details": "See {IERC721-approve}."
      },
      "balanceOf(address)": {
        "details": "See {IERC721-balanceOf}."
      },
      "baseURI()": {
        "details": "Returns the base URI set via {_setBaseURI}. This will be automatically added as a prefix in {tokenURI} to each token's URI, or to the token ID if no specific URI is set for that token ID."
      },
      "getApproved(uint256)": {
        "details": "See {IERC721-getApproved}."
      },
      "isApprovedForAll(address,address)": {
        "details": "See {IERC721-isApprovedForAll}."
      },
      "name()": {
        "details": "See {IERC721Metadata-name}."
      },
      "ownerOf(uint256)": {
        "details": "See {IERC721-ownerOf}."
      },
      "safeTransferFrom(address,address,uint256)": {
        "details": "See {IERC721-safeTransferFrom}."
      },
      "safeTransferFrom(address,address,uint256,bytes)": {
        "details": "See {IERC721-safeTransferFrom}."
      },
      "setApprovalForAll(address,bool)": {
        "details": "See {IERC721-setApprovalForAll}."
      },
      "supportsInterface(bytes4)": {
        "details": "See {IERC165-supportsInterface}. Time complexity O(1), guaranteed to always use less than 30 000 gas."
      },
      "symbol()": {
        "details": "See {IERC721Metadata-symbol}."
      },
      "tokenByIndex(uint256)": {
        "details": "See {IERC721Enumerable-tokenByIndex}."
      },
      "tokenOfOwnerByIndex(address,uint256)": {
        "details": "See {IERC721Enumerable-tokenOfOwnerByIndex}."
      },
      "tokenURI(uint256)": {
        "details": "See {IERC721Metadata-tokenURI}."
      },
      "totalSupply()": {
        "details": "See {IERC721Enumerable-totalSupply}."
      },
      "transferFrom(address,address,uint256)": {
        "details": "See {IERC721-transferFrom}."
      }
    },
    "version": 1
  },
  "userdoc": {
    "kind": "user",
    "methods": {},
    "version": 1
  }
}